:100000000C9434000C9446000C9446000C9446006A
:100010000C9446000C9446000C9446000C94460048
:100020000C9446000C9446000C9446000C94460038
:100030000C9446000C9446000C9446000C94460028
:100040000C9446000C9446000C9446000C94460018
:100050000C9446000C9483000C9446000C944600CB
:100060000C9446000C94460011241FBECFEFD8E03C
:10007000DEBFCDBF21E0A0E0B1E001C01D92A830FD
:10008000B207E1F70E9448000C947E010C94000036
:1000900083E38093C400E1ECF0E08081886080839A
:1000A000E2ECF0E0808186608083ECE7F0E0108293
:1000B000808180648083EAE7F0E0808186608083CD
:1000C00080818062808310927B0080818068808341
:1000D0008081886080838081806480837894FFCF72
:1000E000E0ECF0E0908195FFFDCF8093C60008958D
:1000F00084EF91E0EFE9FFE03197F1F700C00000F5
:100100000197C1F708951F920F920FB60F92112415
:10011000CF92DF92EF92FF922F933F934F935F9393
:100120006F937F938F939F93AF93BF93EF93FF93BF
:100130008091790090E0909307018093060180916F
:10014000060190910701A0E0B0E080930201909336
:100150000301A0930401B0930501809102019091E5
:100160000301A0910401B0910501AC01BD01440F50
:10017000551F661F771F440F551F661F771F840F7B
:10018000951FA61FB71F8093020190930301A093B0
:100190000401B093050120910201309103014091C7
:1001A000040150910501A4E6B0E00E94640160934F
:1001B00002017093030180930401909305018091E3
:1001C000020190910301A0910401B0910501072E55
:1001D0007AE0B695A795979587957A95D1F7702D82
:1001E0008093020190930301A0930401B093050151
:1001F00060910201709103018091040190910501C9
:100200000F2EFAE0CF2ED12CE12CF12CF02DA701EE
:1002100096010E9442016093000160910201709179
:1002200003018091040190910501A70196010E94AC
:1002300042012093010180910101805D0E947000C4
:1002400080910001805D0E9470008AE00E94700031
:100250008DE00E9470000E947800FF91EF91BF91A5
:10026000AF919F918F917F916F915F914F913F914E
:100270002F91FF90EF90DF90CF900F900FBE0F90D7
:100280001F901895A1E21A2EAA1BBB1BFD010DC0E1
:10029000AA1FBB1FEE1FFF1FA217B307E407F50736
:1002A00020F0A21BB30BE40BF50B661F771F881F12
:1002B000991F1A9469F760957095809590959B01A8
:1002C000AC01BD01CF0108950E946F01A59F900D63
:1002D000B49F900DA49F800D911D11240895A29F9D
:1002E000B001B39FC001A39F700D811D1124911D0A
:1002F000B29F700D811D1124911D0895F894FFCFB8
:00000001FF
