:100000000C9424010C9441010C9441010C94410185
:100010000C9441010C9441010C9441010C94410158
:100020000C9441010C9441010C9441010C94410148
:100030000C9441010C9441010C9441010C94410138
:100040000C9441010C9441010C9441010C94410128
:100050000C9441010C9472010C9441010C944101E7
:100060000C9441010C944101000000000000005F6D
:1000700000000007000700147F147F14242A7F2A41
:10008000122313086462364955225000050300000C
:10009000001C2241000041221C0014083E081408E4
:1000A000083E0808005030000008080808080060F2
:1000B00060000020100804023E5149453E00427F86
:1000C000400042615149462141454B311814127F8D
:1000D0001027454545393C4A494930017109050316
:1000E0003649494936064949291E0036360000007E
:1000F0005636000008142241001414141414004150
:100100002214080201510906324979413E7E11113B
:10011000117E7F494949363E414141227F4141227A
:100120001C7F494949417F090909013E4149497AF2
:100130007F0808087F00417F41002040413F017F48
:10014000081422417F404040407F020C027F7F0420
:1001500008107F3E4141413E7F090909063E415159
:10016000215E7F09192946464949493101017F012C
:10017000013F4040403F1F2040201F3F4038403F4C
:100180006314081463070870080761514945430068
:100190007F41410002040810200041417F00040219
:1001A0000102044040404040000102040020545439
:1001B00054787F48444438384444442038444448C0
:1001C0007F3854545418087E0901020C5252523E92
:1001D0007F0804047800447D40002040443D007FB7
:1001E0001028440000417F40007C041804787C08FB
:1001F00004047838444444387C1414140808141453
:10020000187C7C080404084854545420043F44409B
:10021000203C4040207C1C2040201C3C4030403C86
:1002200044281028440C5050503C4464544C440022
:100230000836410000007F00000041360800100829
:10024000081008000000000011241FBECFEFD8E006
:10025000DEBFCDBF11E0A0E0B1E0EEE0F8E002C00B
:1002600005900D92AE30B107D9F723E0AEE0B1E0D2
:1002700001C01D92A031B207E1F70E9443010C9426
:1002800005040C9400000E945B020E949C0261E045
:1002900080E091E00E948B03ECE7F0E01082808127
:1002A00080648083EAE7F0E08081866080838081DB
:1002B0008062808310927B0080818068808380814F
:1002C000886080838081806480837894FFCF84EF0E
:1002D00091E0EFE9FFE03197F1F700C000000197EE
:1002E000C1F708951F920F920FB60F921124CF926B
:1002F000DF92EF92FF922F933F934F935F936F9311
:100300007F938F939F93AF93BF93EF93FF938091CE
:1003100078009091790090930F0380930E03809161
:100320000E0390910F03A0E0B0E080930A03909336
:100330000B03A0930C03B0930D0380910A039091DB
:100340000B03A0910C03B0910D03AC01BD01440F50
:10035000551F661F771F440F551F661F771F840F99
:10036000951FA61FB71F80930A0390930B03A093BA
:100370000C03B0930D0320910A0330910B034091BD
:100380000C0350910D03A4E6B0E00E94EB036093D0
:100390000A0370930B0380930C0390930D038091D9
:1003A0000A0390910B03A0910C03B0910D03072E4B
:1003B0007AE0B695A795979587957A95D1F7702DA0
:1003C00080930A0390930B03A0930C03B0930D0347
:1003D00060910A0370910B0380910C0390910D03BF
:1003E0000F2EFAE0CF2ED12CE12CF12CF02DA7010D
:1003F00096010E94C9036093080360910A037091FB
:100400000B0380910C0390910D03A70196010E94AC
:10041000C903209309036AE080E00E949E03809153
:10042000090363E0805D0E94DA028091080363E0C3
:10043000805D0E94DA0263E08AE091E00E948B0313
:100440000E94A3030E946701FF91EF91BF91AF91BA
:100450009F918F917F916F915F914F913F912F91DC
:10046000FF90EF90DF90CF900F900FBE0F901F90F6
:1004700018952898662311F02A9A15C02A9813C057
:10048000AC01022E02C0559547950A94E2F740FF51
:1004900002C02B9A01C02B982D9A2D98215031091A
:1004A00078F7289A089527E030E090E0E9CF60E0FF
:1004B0000E9439020895CF93DF93209A219A229ABD
:1004C000239A259A299A289A83EC99E00197F1F7C3
:1004D00000C0000029988BE594E40197F1F700C073
:1004E0000000299A289881E20E94570283E10E9425
:1004F000570286E00E94570282EC0E94570280E277
:100500000E94570289E00E94570280E80E94570229
:1005100080E40E945702C8EFD1E061E080E00E94D1
:1005200039022197D1F788E00E9457028CE00E949F
:100530005702DF91CF91089580E80E94570280E42E
:100540000E9457021092060310920703EEE0F1E0BA
:1005500086E093E01192E817F907E1F70895262F56
:1005600026952695269590E034E5239F800D911DD4
:100570001124442379F0FC01E25FFE4F677081E0B3
:1005800090E002C0880F991F6A95E2F79081892B4D
:1005900080830895FC01E25FFE4F677081E090E088
:1005A00002C0880F991F6A95E2F780959081892390
:1005B000808308954F925F926F927F928F929F9265
:1005C000AF92BF92CF92DF92EF92FF920F931F9361
:1005D000CF93DF93562E262F30E04901880C991CCB
:1005E000880C991C820E931E181419040CF05EC01E
:1005F0008901000F111F000F111F000F111F021B97
:10060000130B612CA82EB12CC50180975C01AA0C9C
:10061000BB1CAA0CBB1CA80EB91E412C0F2EF7E068
:10062000CF2EF3E0DF2EF02D0F2EF6E0EF2EF3E0CD
:10063000FF2EF02D2DC0FE01249130E0872D652D79
:100640000E94BD0302C0359527958A95E2F720FFE9
:100650000AC0F6016081670DF701808141E0860DD7
:100660000E94AF0209C0F6016081670DF701808129
:10067000442D860D0E94AF027394872D90E0801761
:100680009107CCF26394862D90E08815990574F457
:1006900010161106BCF7862D652D0E94BD03E501DD
:1006A000C80FD11DC859DF4F742CC5CF80910603E8
:1006B00091E0980F852D880F880F850D890F84355F
:1006C00018F4809306030EC010920603E7E0F3E0EF
:1006D000808191E0980F852D880F880F880F8519EC
:1006E000890F808380910703803320F010920603E6
:1006F00010920703DF91CF911F910F91FF90EF9020
:10070000DF90CF90BF90AF909F908F907F906F9031
:100710005F904F9008951F93CF93DF93EC018881F2
:10072000882341F0162F2196612F0E94DA028991C9
:100730008111FACFDF91CF911F9108958093060325
:100740006093070308950F931F93CF93DF9380E87F
:100750000E94570280E40E945702CEE0D1E006E0FA
:1007600013E061E089910E943902C017D107C9F7EF
:10077000DF91CF911F910F910895991B79E004C0EB
:10078000991F961708F0961B881F7A95C9F78095D0
:100790000895A1E21A2EAA1BBB1BFD010DC0AA1FC2
:1007A000BB1FEE1FFF1FA217B307E407F50720F0DA
:1007B000A21BB30BE40BF50B661F771F881F991F55
:1007C0001A9469F760957095809590959B01AC019E
:1007D000BD01CF0108950E94F603A59F900DB49F1F
:1007E000900DA49F800D911D11240895A29FB0012A
:1007F000B39FC001A39F700D811D1124911DB29F55
:0E080000700D811D1124911D0895F894FFCFF5
:0E080E0054656D7020696E204600203A290066
:00000001FF
