:100000000C940D010C942A010C942A010C942A01E1
:100010000C942A010C942A010C942A010C942A01B4
:100020000C942A010C942A010C942A010C942A01A4
:100030000C942A010C942A010C942A010C942A0194
:100040000C942A010C942A010C942A010C942A0184
:100050000C942A010C942A010C942A010C942A0174
:100060000C942A010C942A01084AD73B3BCE016E1E
:1000700084BCBFFDC12F3D6C74319ABD56833DDAFF
:100080003D00C77F11BED9E4BB4C3E916BAAAABE0E
:10009000000000803F07634236B79BD8A71A396833
:1000A0005618AEBAAB558C1D3CB7CC5763BD6DED41
:1000B000FD753EF6177231BF000000803F0800005A
:1000C00000BE922449123EABAAAA2ABECDCCCC4C8B
:1000D0003E00000080BEABAAAAAA3E00000000BFFE
:1000E000000000803F0000000000084178D3BB43BF
:1000F00087D1133D190E3CC3BD4282AD2B3E68EC47
:100100008276BED98FE1A93E4C80EFFFBE01C4FFCD
:100110007F3F0000000000006E616E00696E6600A7
:1001200000407A10F35A00A0724E18090010A5D4AE
:10013000E80000E87648170000E40B54020000CA0B
:100140009A3B000000E1F505000080969800000051
:1001500040420F000000A0860100000010270000B0
:100160000000E803000000006400000000000A0036
:10017000000000000100000000002C76D888DC6739
:100180004F0823DFC1DFAE59E1B1B796E5E3E45391
:10019000C63AE651997696E8E6C28426EB898C9BAE
:1001A00062ED407C6FFCEFBC9C9F40F2BAA56FA54E
:1001B000F490055A2AF75C936B6CF9676DC11BFCD0
:1001C000E0E40D47FEF520E6B500D0ED902E0300EB
:1001D000943577050080841E080000204E0A000038
:1001E00000C80C333333330F986E12831141EF8DF7
:1001F0002114893BE65516CFFEE6DB18D1844B3837
:100200001BF77C1D901DA4BBE424203284725E2267
:100210008100C9F124ECA1E53D2711241FBECFEFD9
:10022000D8E0DEBFCDBF11E0A0E0B1E0EAEFF6E23A
:1002300002C005900D92A434B107D9F721E0A4E4DF
:10024000B1E001C01D92A83DB207E1F70E9431095B
:100250000C947B130C940000CF93C82F8A3029F4A0
:1002600060E070E08DE00E942C01E0ECF0E0908115
:1002700095FFFDCFC093C60080E090E0CF91089538
:10028000CF93BC01E0ECF0E090819923ECF7C091B2
:10029000C6008C2F0E942C018C2F90E0CF910895E6
:1002A0008093BB0084E88093BC00ECEBF0E080819D
:1002B0008823ECF7089584EA8093BC00ECEBF0E02F
:1002C00080818823ECF708951092B9008CE0809328
:1002D000B80084E08093BC00089584EC8093BC0057
:1002E000ECEBF0E080818823ECF78091BB0008956F
:1002F00084E88093BC00ECEBF0E080818823ECF78D
:100300008091BB0008951F93CF93DF930E945B0100
:100310008CE30E94500180E00E94500180E70E941F
:100320005001CCEBD0E014E918830E945B018CE310
:100330000E94500181E00E94500180EA0E94500119
:100340001883DF91CF911F9108951F93CF93DF936F
:100350000E945B018CE30E94500182E00E945001E8
:1003600081E00E945001CCEBD0E014E918838FE3C8
:100370009CE90197F1F700C000000E945B018DE34A
:100380000E9450010E946D01109258018093590102
:100390000E946D012091580130915901282B309312
:1003A0005901209358010E946D01109254018093CD
:1003B00055010E946D012091540130915501282B67
:1003C00030935501209354010E946D011092560103
:1003D000809357010E947801209156013091570176
:1003E000282B30935701209356011883DF91CF912A
:1003F0001F91089587E68093C400E1ECF0E08081CE
:1004000088608083E2ECF0E08081866080830895DC
:1004100084EF91E0EFE3FFE13197F1F700C00000D6
:100420000197C1F708950E945B0186EA0E9450017E
:1004300083E30E9450010E945B0187EA0E94500101
:100440000E946D0110927E0180937F010E945B01EA
:1004500086EA0E94500182E30E9450010E945B01E3
:1004600087EA0E9450010E946D0120917E01309127
:100470007F01282B30937F0120937E010E945B0136
:1004800086EA0E94500185E30E9450010E945B01B0
:1004900087EA0E9450010E946D01109268018093CA
:1004A00069010E945B0186EA0E94500184E30E9478
:1004B00050010E945B0187EA0E9450010E946D0179
:1004C0002091680130916901282B309369012093B4
:1004D00068010E945B0186EA0E94500187E30E9446
:1004E00050010E945B0187EA0E9450010E946D0149
:1004F00010928801809389010E945B0186EA0E9424
:10050000500186E30E9450010E945B0187EA0E942D
:1005100050010E9478012091880130918901282B97
:10052000309389012093880184E98093BC00089569
:100530000E945B0186EA0E9450018DE20E945001F8
:1005400088E00E94500184E98093BC0008954F9296
:100550005F926F927F928F929F92AF92BF92CF9253
:10056000DF92EF92FF920F931F938090760190900D
:100570007701A0907801B090790120EA821A2FE0EB
:10058000920AA108B10880926A0190926B01A09230
:100590006C01B0926D01A5019401C501B4010E94E6
:1005A00037112B013C01992334F42FEF420E2FE039
:1005B000521E611C711C032E3CE075946794579485
:1005C00047943A95D1F7302DE091BC0160919E019E
:1005D00070919F018091A0019091A101A3019201CE
:1005E0000E9437118B019C01992324F40150184F6C
:1005F0002F4F3F4F680179010B2EBBE0F594E79434
:10060000D794C794BA95D1F7B02D609196017091A7
:1006100097018091980190919901A50194010E9400
:1006200037118B019C01992324F40150184F2F4F4F
:100630003F4FD901C801072E7BE0B595A795979547
:1006400087957A95D1F7702D8C0D9D1DAE1DBF1D20
:10065000409160015091610160916201709163016C
:10066000440F551F661F771F440F551F661F771FC6
:10067000840F951FA61FB71F0E2E04C0880F991F49
:10068000AA1FBB1F0A94D2F70296A11DB11D6C01CF
:100690007D01BB232CF423E0C20ED11CE11CF11C14
:1006A000F594E794D794C794F594E794D794C794B6
:1006B000C092CA01D092CB01E092CC01F092CD0160
:1006C00060919A0170919B0180919C0190919D0194
:1006D000A50194010E9437114B015C01992334F468
:1006E0002FEF820E2FE1921EA11CB11C072E7DE080
:1006F000B594A794979487947A95D1F7702D8092AA
:10070000920190929301A0929401B0929501609110
:10071000B8017091B9018091BA019091BB01A30118
:1007200092010E9437112B013C0199232CF42FEFE9
:10073000420E521E611C711CC301BB2797FDB09570
:10074000AB2F80936E0190936F01A0937001B093D3
:100750007101880D991DAA1DBB1D0296A11DB11D19
:10076000AC01BD01BB2324F44D5F5F4F6F4F7F4F42
:10077000DB01CA01B595A79597958795B595A7957E
:10078000979587958093A6019093A701A093A801C0
:10079000B093A9019C01AD0130584F4F5F4F60915C
:1007A0007A0170917B0180917C0190917D010E9482
:1007B00037114B015C01072E7FE0B694A794979404
:1007C00087947A95D1F7702D8092AE019092AF0107
:1007D000A092B001B092B1014090500150905101EF
:1007E0006090520170905301A30192012C193D09B0
:1007F0004E095F0980E593ECA0E0B0E0BC01CD01BB
:1008000004C09595879577956795EA95D2F70E94EC
:1008100037116093B4017093B5018093B601909342
:10082000B70199238CF0660F771F881F991FA501C8
:1008300094010E944711209350013093510140933D
:1008400052015093530175C0D301C201772024F4A3
:1008500081509F4FAF4FBF4F692F7A2F8B2F992712
:1008600087FD9A959B01AC010E9437119B01AC0159
:10087000AEEDBBE00E9488116B017C0199232CF442
:100880002FEFC20ED21EE11CF11C6701FF24D7FC22
:10089000F094EF2CC0929201D0929301E0929401D7
:1008A000F0929501A3E4B3EEA30192010E94961188
:1008B0004B015C0199232CF42FEF820E921EA11C98
:1008C000B11CC501BB2797FDB095AB2F80936E017E
:1008D00090936F01A0937001B09371018C0D9D1DD9
:1008E000AE1DBF1D8153914FAF4FBF4FAC01BD0136
:1008F00022F44D5F5F4F6F4F7F4F7595679557950A
:10090000479575956795579547954093A6015093E0
:10091000A7016093A8017093A901440D551D661DA0
:10092000771D409350015093510160935201709391
:1009300053011F910F91FF90EF90DF90CF90BF90E8
:10094000AF909F908F907F906F905F904F900895A1
:100950001F93CF93DF930E945B018EEE0E945001A4
:1009600084EF0E94500184E30E945001CCEBD0E060
:1009700014E918831092BC011092BD011092BE01BF
:100980001092BF018FE39CE90197F1F700C00000CE
:100990000E945B018EEE0E94500186EF0E94500182
:1009A0000E945B018FEE0E9450010E946D0190E059
:1009B000A0E0B0E0BA2FA92F982F8827809350018C
:1009C00090935101A0935201B09353010E946D0185
:1009D0004091500150915101609152017091530129
:1009E000480F511D611D711D762F652F542F44270F
:1009F0004093500150935101609352017093530101
:100A00000E94780140915001509151016091520132
:100A100070915301480F511D611D711D2091BC0142
:100A20003091BD0188E090E0821B930B04C0759566
:100A30006795579547958A95D2F740935001509303
:100A4000510160935201709353011883DF91CF914C
:100A50001F9108950E945B018EEE0E9450018AEA68
:100A60000E9450010E945B018FEE0E9450010E9483
:100A70006D0190E0982F8827092E000CAA0BBB0B64
:100A80008093600190936101A0936201B093630130
:100A90000E946D014091600150916101609162017D
:100AA00070916301482B4093600150936101609302
:100AB0006201709363010E946D0190E0982F882776
:100AC000092E000CAA0BBB0B809396019093970103
:100AD000A0939801B09399010E946D0140919601F5
:100AE000509197016091980170919901482B409322
:100AF00096015093970160939801709399010E9419
:100B00006D0190E0982F8827092E000CAA0BBB0BD3
:100B100080939A0190939B01A0939C01B0939D01B7
:100B20000E946D0140919A0150919B0160919C013E
:100B300070919D01482B40939A0150939B016093C3
:100B40009C0170939D010E946D0190E0982F882771
:100B5000092E000CAA0BBB0B80937A0190937B01AA
:100B6000A0937C01B0937D010E946D0140917A01B8
:100B700050917B0160917C0170917D01482B4093E5
:100B80007A0150937B0160937C0170937D010E94F8
:100B90006D0190E0982F8827092E000CAA0BBB0B43
:100BA0008093720190937301A0937401B0937501C7
:100BB0000E946D0140917201509173016091740126
:100BC00070917501482B40937201509373016093AB
:100BD0007401709375010E946D0190E0982F882731
:100BE000092E000CAA0BBB0B809364019093650146
:100BF000A0936601B09367010E946D01409164016A
:100C0000509165016091660170916701482B409396
:100C100064015093650160936601709367010E94BF
:100C20006D0190E0982F8827092E000CAA0BBB0BB2
:100C30008093B8019093B901A093BA01B093BB011E
:100C40000E946D014091B8015091B9016091BA01C3
:100C50007091BB01482B4093B8015093B901609348
:100C6000BA017093BB010E946D0190E0982F882714
:100C7000092E000CAA0BBB0B80939E0190939F0141
:100C8000A093A001B093A1010E946D0140919E012B
:100C900050919F016091A0017091A101482B409358
:100CA0009E0150939F016093A0017093A1010E9447
:100CB0006D0190E0982F8827092E000CAA0BBB0B22
:100CC00080938E0190938F01A0939001B093910136
:100CD0000E946D0140918E0150918F0160919001B1
:100CE00070919101482B40938E0150938F01609336
:100CF0009001709391010E946D0190E0982F8827D8
:100D0000092E000CAA0BBB0B8093C0019093C1016C
:100D1000A093C201B093C3010E946D014091C00134
:100D20005091C1016091C2017091C301482B409361
:100D3000C0015093C1016093C2017093C3010E942E
:100D40006D0190E0982F8827092E000CAA0BBB0B91
:100D500080935A0190935B01A0935C01B0935D0175
:100D60000E94780140915A0150915B0160915C01B1
:100D700070915D01482B40935A0150935B01609341
:100D80005C0170935D0184E98093BC0008951F931A
:100D9000CF93DF930E945B018EEE0E94500184EF9F
:100DA0000E9450018EE20E945001CCEBD0E014E989
:100DB00018838FE59DE60197F1F700C000000E94BF
:100DC0005B018EEE0E94500186EF0E9450010E944E
:100DD0005B018FEE0E9450010E946D0190E0982F00
:100DE0008827092E000CAA0BBB0B80934C01909313
:100DF0004D01A0934E01B0934F010E9478014091A4
:100E00004C0150914D0160914E0170914F01482B62
:100E100040934C0150934D0160934E0170934F01EC
:100E20001883DF91CF911F910895CF92DF92EF92B7
:100E3000FF920F931F9340914C0150914D0160918F
:100E40004E0170914F018091640190916501A091D4
:100E50006601B09167019A01AB01281B390B4A0B5F
:100E60005B0B60917201709173018091740190919C
:100E700075010E9437118B019C01992324F40150C4
:100E800010482F4F3F4F680179010B2EBFE0F594BA
:100E9000E794D794C794BA95D1F7B02DC092920138
:100EA000D0929301E0929401F09295018091C0015B
:100EB0009091C101A091C201B091C301BC01CD01CB
:100EC000052E5BE0660F771F881F991F5A95D1F793
:100ED000502D00915A0110915B0120915C013091DD
:100EE0005D01A90198012C0D3D1D4E1D5F1D209334
:100EF000A6013093A7014093A8015093A9010E9435
:100F0000691120936E0130936F01409370015093EB
:100F10007101D701C601820F931FA41FB51F8093D3
:100F2000760190937701A0937801B0937901AC0199
:100F3000BD01485F5F4F6F4F7F4FDB01CA011AF45D
:100F40000F96A11DB11D689413F8B595A7959795B7
:100F500087951694D1F780934C0190934D01A093FF
:100F60004E01B0934F011F910F91FF90EF90DF90D2
:100F7000CF9008950E945B0180ED0E94500186E1B0
:100F80000E94500188E10E94500184E98093BC00D6
:100F900008950E945B0180ED0E9450018DE10E9446
:100FA00050010E945B0181ED0E9450010E946D0181
:100FB0001092B2018093B3010E946D012091B201A1
:100FC0003091B301282B3093B3012093B2010E94DA
:100FD0006D0110925E0180935F010E946D0120916E
:100FE0005E0130915F01282B30935F0120935E01F9
:100FF0000E946D011092C4018093C5010E94780186
:101000002091C4013091C501282B3093C501209354
:10101000C40184E98093BC0008950E94C7060E9421
:10102000A8040895CF92DF92EF92FF926091580149
:1010300070915901072E000C880B990B0E94390BF7
:101040006B017C018091560190915701BC01990F71
:10105000880B990B0E94390BA70196010E94660A22
:1010600020E030E044E353E40E94F40B20ED3FE045
:1010700049E450E40E94C50A20E030E044E353E430
:101080000E94E7096093CE017093CF018093D00155
:101090009093D10160917E0170917F01072E000C29
:1010A000880B990B0E94390B2FE632E143E85BE392
:1010B0000E94F40B6093C6017093C7018093C8012E
:1010C0009093C9016091680170916901072E000C2D
:1010D000880B990B0E94390B2FE632E143E85BE362
:1010E0000E94F40B60938A0170938B0180938C01B2
:1010F00090938D016091880170918901072E000CF9
:10110000880B990B0E94390B2FE632E143E85BE331
:101110000E94F40B6093AA017093AB018093AC0121
:101120009093AD010E9415070E94A70260914C01A7
:1011300070914D0180914E0190914F010E94390BA9
:1011400020E030E040E251E40E94C50A609344018F
:10115000709345018093460190934701609150013F
:101160007091510180915201909153010E94390B6D
:101170002091000130910101409102015091030141
:101180000E94C50A2FEC39ED42E45EE30E94610C37
:101190009B01AC0160E070E080E89FE30E94E609FB
:1011A00020E03AE24DE257E40E94F40B28E439EFE4
:1011B00041E550E40E94F40B6093480170934901AB
:1011C00080934A0190934B016091B2017091B301F9
:1011D000072E000C880B990B0E94390B20E030E0A1
:1011E00046E651E40E94C50A60938401709385012C
:1011F000809386019093870160915E0170915F01F9
:10120000072E000C880B990B0E94390B20E030E070
:1012100046E651E40E94C50A6093A2017093A301BF
:101220008093A4019093A5016091C4017091C501C0
:10123000072E000C880B990B0E94390B20E030E040
:1012400046E651E40E94C50A6093800170938101D3
:101250008093820190938301FF90EF90DF90CF9075
:1012600008950E94FA01E2EDF1E084E091E09383B9
:101270008283918380830E9464010E9408022FEF81
:1012800081EE94E0215080409040E1F700C00000E2
:101290000E9483010E9498020E94BA072FEF81EEFC
:1012A00094E0215080409040E1F700C00000C2E18E
:1012B000D1E00E94A5010E9413020E942A050E940B
:1012C0000D080E94C9070E941208809155018F9352
:1012D000809154018F938091D1018F938091D0019F
:1012E0008F938091CF018F938091CE018F938091C6
:1012F00083018F93809182018F93809181018F93DD
:10130000809180018F938091A5018F938091A4019A
:101310008F938091A3018F938091A2018F938091ED
:1013200087018F93809186018F93809185018F93A0
:10133000809184018F93809147018F938091460122
:101340008F93809145018F93809144018F93809179
:101350004B018F9380914A018F93809149018F9324
:10136000809148018F938091AD018F938091AC0162
:101370008F938091AB018F938091AA018F9380917D
:101380008D018F9380918C018F9380918B018F932E
:1013900080918A018F938091C9018F938091C801B8
:1013A0008F938091C7018F938091C6018F93DF93B4
:1013B000CF930E9407138DB79EB788960FB6F89407
:1013C0009EBF0FBE8DBF0E94080273CF5058BB272F
:1013D000AA270E94FE090C94B20B0E94A40B38F0BD
:1013E0000E94AB0B20F039F49F3F19F426F40C94C3
:1013F0007A0B0EF4E095E7FB0C94740BE92F0E9436
:10140000C30B58F3BA17620773078407950720F0D8
:1014100079F4A6F50C94E50B0EF4E0950B2EBA2F9B
:10142000A02D0B01B90190010C01CA01A0011124EA
:10143000FF27591B99F0593F50F4503E68F11A1696
:10144000F040A22F232F342F4427585FF3CF469527
:1014500037952795A795F0405395C9F77EF41F1649
:10146000BA0B620B730B840BBAF09150A1F0FF0F13
:10147000BB1F661F771F881FC2F70EC0BA0F621FFF
:10148000731F841F48F4879577956795B795F795EF
:101490009E3F08F0B0CF9395880F08F09927EE0F84
:1014A0009795879508950E94A40B60F080E891E0DD
:1014B00009F49EEF0E94AB0B28F040E851E071F474
:1014C0005EEF0CC00C947A0B0C94E50BE92FE078DE
:1014D0000E94C30B40F3092E052AB1F326173707E4
:1014E0004807590738F00E2E07F8E02569F0E02587
:1014F000E0640AC0EF6307F8009407FADB01B90162
:101500009D01DC01CA01AD01EF930E94DC0A0E943B
:10151000B20B0E94960A5F91552339F02BED3FE004
:1015200049E450FD49EC0C94E7090895DF93DD2769
:10153000B92FBF7740E85FE31616170648075B0729
:1015400018F4D92F0E94EC0B9F938F937F936F9386
:101550000E94B10CE8E6F0E00E947D0B0E94B20B05
:101560002F913F914F915F910E94070CDD2351F025
:101570009058A2EA2AED3FE049EC5FE3D0785D277E
:101580000E94FE09DF910C94B20B0E94D90A0C94C0
:10159000B20B0E94AB0B58F00E94A40B40F029F450
:1015A0005F3F29F00C94740B51110C94E60B0C94D2
:1015B0007A0B0E94C30B68F39923B1F3552391F37F
:1015C000951B550BBB27AA2762177307840738F0B2
:1015D0009F5F5F4F220F331F441FAA1FA9F335D00F
:1015E0000E2E3AF0E0E832D091505040E695001CC3
:1015F000CAF72BD0FE2F29D0660F771F881FBB1F7D
:10160000261737074807AB07B0E809F0BB0B802D5A
:10161000BF01FF2793585F4F3AF09E3F510578F086
:101620000C94740B0C94E60B5F3FE4F3983ED4F3F8
:10163000869577956795B795F7959F5FC9F7880F5A
:10164000911D9695879597F90895E1E0660F771FAC
:10165000881FBB1F621773078407BA0720F0621B3D
:10166000730B840BBA0BEE1F88F7E0950895E8948E
:1016700009C097FB3EF490958095709561957F4FDA
:101680008F4F9F4F9923A9F0F92F96E9BB27939588
:10169000F695879577956795B795F111F8CFFAF498
:1016A000BB0F11F460FF1BC06F5F7F4F8F4F9F4FC9
:1016B00016C0882311F096E911C0772321F09EE827
:1016C000872F762F05C0662371F096E8862F70E08D
:1016D00060E02AF09A95660F771F881FDAF7880F67
:1016E0009695879597F9089597F99F6780E870E038
:1016F00060E008959FEF80EC0895DF93CF931F93F0
:101700000F93FF92EF92DF927B018C01689406C0E9
:10171000DA2EEF010E94070CFE01E894A5912591B5
:10172000359145915591A6F3EF010E94FE09FE0106
:101730009701A801DA9469F7DF90EF90FF900F917D
:101740001F91CF91DF91089500240A941616170671
:1017500018060906089500240A94121613061406A2
:1017600005060895092E0394000C11F4882352F005
:10177000BB0F40F4BF2B11F460FF04C06F5F7F4FBD
:101780008F4F9F4F089557FD9058440F551F59F0A4
:101790005F3F71F04795880F97FB991F61F09F3F5E
:1017A00079F087950895121613061406551FF2CF87
:1017B0004695F1DF08C0161617061806991FF1CFD7
:1017C00086957105610508940895E894BB276627FE
:1017D0007727CB0197F908959B01AC0160E070E099
:1017E00080E89FE30C94C50A0E94070C0C94B20B8E
:1017F0000E94A40B38F00E94AB0B20F0952311F04F
:101800000C94740B0C947A0B11240C94E60B0E942C
:10181000C30B70F3959FC1F3950F50E0551F629F66
:10182000F001729FBB27F00DB11D639FAA27F00D39
:10183000B11DAA1F649F6627B00DA11D661F829F60
:101840002227B00DA11D621F739FB00DA11D621F45
:10185000839FA00D611D221F749F3327A00D611D62
:10186000231F849F600D211D822F762F6A2F112444
:101870009F5750409AF0F1F088234AF0EE0FFF1F77
:10188000BB1F661F771F881F91505040A9F79E3FCE
:10189000510580F00C94740B0C94E60B5F3FE4F35D
:1018A000983ED4F3869577956795B795F795E79524
:1018B0009F5FC1F7FE2B880F911D9695879597F92D
:1018C0000895FA01EE0FFF1F309621053105A1F1B1
:1018D0006115710561F48038BFE39B0749F1689495
:1018E0009038810561F08038BFEF9B0741F0992364
:1018F0004AF5FF3FE1053105210519F1E894089407
:10190000E795D901AA2329F4AB2FBE2FF85FD0F3B6
:1019100010C0FF5F70F4A695E0F7F73950F019F0AA
:10192000FF3A38F49F779F930DD00F9007FC9058A3
:10193000089546F00C947A0B60E070E080E89FE335
:1019400008954FE79F775F934F933F932F930E94A4
:10195000310D2F913F914F915F910E94F40B0C94A8
:10196000BD0C9B01AC010C94F40B29F416F00C9403
:10197000740B0C94E50B0C947A0B0E94CB0BA8F320
:101980009638A0F707F80F92E8942BE33AEA48EB71
:101990005FE70E940A0C0F920F920F924DB75EB74D
:1019A0000F920E94790DE5E9F0E00E947D0B4F91C6
:1019B0005F91EF91FF91E595EE1FFF1F49F0FE57F4
:1019C000E0684427EE0F441FFA95E1F74195550B67
:1019D0000E94F30C0F9007FE0C94EC0B08950C94EE
:1019E000740B0C94AD0D0E94CB0BD8F39923C9F363
:1019F000940F511DA3F39150504094F059F0882357
:101A000032F0660F771F881F91505040C1F79E3FFC
:101A100051052CF7880F911D9695879597F9089594
:101A20005F3FACF0983E9CF0BB2786957795679515
:101A3000B79508F4B1609395C1F7BB0F58F711F44F
:101A400060FFE8CF6F5F7F4F8F4F9F4FE3CF0C94C6
:101A5000E60B16F00C94AD0D0C947A0B68940C9474
:101A6000740B0E94CB0BA8F39923C1F3AEF3DF9361
:101A7000CF931F930F93FF92C92FDD2788232AF05E
:101A80002197660F771F881FDAF720E030E040E8E3
:101A90005FEB9FE3883920F0803E38F021968F7706
:101AA0000E94E709EDEBF0E004C00E94E709EAEECE
:101AB000F0E00E947D0B8B01BE01EC01FB2E6F5705
:101AC00071097595771F880B990B0E94390B28E1D6
:101AD00032E741E35FE30E94070CAF2D9801AE01AE
:101AE000FF900F911F91CF91DF910E94FE090C94FE
:101AF000B20BFA01DC01AA0FBB1F9B01AC01BF575F
:101B000028F4222733274427507820C0B75190F477
:101B1000AB2F0024469537952795011CA395D2F34A
:101B2000002071F0220F331F441FB395DAF30ED05B
:101B30000C94E60961307105A0E88A07B94630F4D3
:101B40009B01AC016627772788279078309621F093
:101B5000208331834283538308959F3F31F0915016
:101B600020F4879577956795B795880F911D969581
:101B7000879597F90895A3E1B0E0E1ECFDE00C94BE
:101B80009B116C014B012A01FC0117821682838193
:101B900081FF43C3AE014F5F5F4F3A01F60193816E
:101BA000F40193FD859193FF81914F01882309F4FE
:101BB00030C3853239F493FD859193FF81914F01B4
:101BC000853239F4B60190E00E94CF12520125010E
:101BD000E5CF10E0F12C20E02032A0F48B3269F048
:101BE00030F4803259F0833269F420612CC08D3298
:101BF00039F0803339F4216026C02260246023C08C
:101C0000286021C027FD27C030ED380F3A3078F426
:101C100026FF06C0FAE01F9F300D1124132F13C0BA
:101C20004AE0F49E300D1124F32E20620CC08E3257
:101C300021F426FDEEC2206406C08C3611F4206823
:101C400002C0883641F4F40193FD859193FF8191A0
:101C50004F018111C1CF9BEB980F933018F4206195
:101C6000805E06C09BE9980F933008F071C12F7E0B
:101C700026FF16E02F73322E853619F42064322E9B
:101C800008C0863621F4F22FF0683F2E02C01111F1
:101C9000115037FE07C01C3350F4EE24E394E10EDC
:101CA00027E00BC0183038F027E017E005C027E028
:101CB0004CE3E42E02C0212FE12C520144E0A40E9B
:101CC000B11CF20160817181828193810E2DA3018B
:101CD0000E94E1112C01098100FF02C003FF07C02F
:101CE00031FC08C032FE09C030E2232E07C02DE2CD
:101CF000222E04C09BE2292E01C0212C802F8C7043
:101D000019F0211068C2A8C237FE0FC0E40C04FF0E
:101D100004C08A81813309F4EA941E1474F5F8E052
:101D2000FE1578F588E0E82E2CC036FC2AC0812FFD
:101D300090E0841595059CF02CEF42162FEF52068B
:101D400074F0432D4068342E0AC0E2E0F0E0EC0F5E
:101D5000FD1FE10FF11D8081803319F41150111125
:101D6000F4CF37FE0EC0EE24E394E10E812F90E015
:101D7000481659062CF4141904C0EE24E39401C04B
:101D800010E037FE06C01414150434F4C2010196A5
:101D900005C085E090E002C081E090E0211001964E
:101DA000112331F0212F30E02F5F3F4F820F931F1F
:101DB0002F2D30E08217930714F4F81A01C0F12C8C
:101DC000832D897049F4FF2039F0B60180E290E05C
:101DD0000E94CF12FA94F7CF222029F0B601822D6B
:101DE00090E00E94CF1233FC09C0FF2039F0B60109
:101DF00080E390E00E94CF12FA94F7CF37FE5AC0EA
:101E0000942D852D57FE02C090E080E0292E382EBB
:101E100020E030E0A2014E1951095D874C87A201F4
:101E2000421953095F874E87612F70E04427552779
:101E3000461B570B598B488B5FEF2516350649F427
:101E4000B6018EE290E02A8B3B8B0E94CF123B8939
:101E50002A89421453046CF04C855D854215530564
:101E600044F4EE85FF85E20FF31FE60DF71D818137
:101E700001C080E351E0251A31082F5F3F4F4889A8
:101E80005989241635064CF0B60190E02A8B3B8B1D
:101E90000E94CF122A893B89CFCF2414350439F40C
:101EA0009A81963318F4953311F404FF81E3B60157
:101EB00090E04BC08A81813309F00F7EB60190E03B
:101EC0000E94CF12111105C034FC18C085E690E0C5
:101ED00017C0B6018EE290E00E94CF1282E0EE249D
:101EE000E394E80EF301E80FF11D8081B60190E064
:101EF0000E94CF1211508E2D91F7E6CF85E490E02D
:101F0000B6010E94CF1257FC05C04114510439F4A8
:101F100004FF05C05194419451088DE201C08BE249
:101F2000B60190E00E94CF1280E39AE04916510476
:101F30002CF08F5F5AE0451A5108F7CFB60190E0B8
:101F40000E94CF12B601C201C0960E94CF1257C1A3
:101F5000833631F0833779F0833509F058C021C0DA
:101F60005201E2E0AE0EB11CF2018081898301E0F2
:101F700010E0230114C05201F2E0AF0EB11CF201D7
:101F80004080518026FF03C0612F70E002C06FEFD8
:101F90007FEFC2012A8B0E94C4128C012A892F77FD
:101FA00015C05201F2E0AF0EB11CF2014080518029
:101FB00026FF03C0612F70E002C06FEF7FEFC20108
:101FC0002A8B0E94B9128C012A892068322E23FDA7
:101FD0001AC08F2D90E008171907A8F4B60180E207
:101FE00090E00E94CF12FA94F4CFF20137FC859171
:101FF00037FE81912F01B60190E00E94CF12F110BF
:10200000FA94015011090115110579F7F8C08436C9
:1020100011F0893659F5520127FF09C0F4E0AF0EDF
:10202000B11CF20160817181828193810AC0F2E06A
:10203000AF0EB11CF20160817181072E000C880B7C
:10204000990B2F76322E97FF09C090958095709549
:1020500061957F4F8F4F9F4F2068322E2AE030E0EE
:10206000A3010E941D13E82EE6183FC0022F8537FA
:1020700021F40F7E2AE030E01DC0097F8F3691F0F9
:1020800018F4883559F0C5C0803719F0883711F039
:10209000C0C0006104FF09C0046007C024FF08C07D
:1020A000066006C028E030E005C020E130E002C054
:1020B00020E132E0520107FF09C0F4E0AF0EB11C8D
:1020C000F201608171818281938108C0F2E0AF0EDC
:1020D000B11CF2016081718180E090E0A3010E9457
:1020E0001D13E82EE6180F77302E36FE0BC0332D69
:1020F0003E7FE11650F434FE0AC032FC08C0332D96
:102100003E7E05C00E2D332D03C00E2D01C0012FC4
:1021100034FF0CC0FE01EE0DF11D8081803311F4FF
:10212000397E08C032FF05C00E5F04C0832F867859
:1021300009F00F5F33FD13C030FF06C01E2D0F15D1
:1021400018F41F0D101B0F2D0F1568F4B60180E257
:1021500090E03B8B0E94CF120F5F3B89F5CF0F15AC
:1021600010F4F01A01C0F12C34FF12C0B60180E364
:1021700090E03B8B0E94CF123B8932FF17C031FDAC
:1021800003C088E790E002C088E590E0B6010CC08B
:10219000832F867859F031FF02C08BE201C080E2C4
:1021A00037FD8DE2B60190E00E94CF12E11638F4BF
:1021B000B60180E390E00E94CF121150F7CFEA946D
:1021C000F301EE0DF11D8081B60190E00E94CF1267
:1021D000E110F5CF14C0F4E0FF1558F584E0F81ACB
:1021E00033FE1EC0211026C003FF2AC008E111E003
:1021F000F32DF0713F2EF8018491811124C0FF204E
:1022000009F4E5CCB60180E290E00E94CF12FA9486
:10221000F6CFF6018681978126C08FEF9FEF23C00E
:10222000B60180E290E00E94CF12FA94F110F8CF4C
:10223000D9CFF12CB601822D90E00E94CF12D4CFDD
:102240000CE111E0D5CF31108052B60190E00E9430
:10225000CF120F5F1F4FCFCF23E02F1510F483E075
:10226000BECFF12CC1CF6396E2E10C94B711DB0134
:102270008F939F930E948811BF91AF91A29F800D71
:10228000911DA39F900DB29F900D11240895A1E27E
:102290001A2EAA1BBB1BFD010DC0AA1FBB1FEE1FE0
:1022A000FF1FA217B307E407F50720F0A21BB30B2B
:1022B000E40BF50B661F771F881F991F1A9469F7A7
:1022C00060957095809590959B01AC01BD01CF0103
:1022D0000895052E97FB1EF400940E94801157FD6F
:1022E00007D00E94471107FC03D04EF40C948011D4
:1022F00050954095309521953F4F4F4F5F4F089532
:1023000090958095709561957F4F8F4F9F4F089561
:102310000E94D211A59F900DB49F900DA49F800D97
:10232000911D11240895B7FF0C9488110E94881103
:10233000821B930B08952F923F924F925F926F9260
:102340007F928F929F92AF92BF92CF92DF92EF9245
:10235000FF920F931F93CF93DF93CDB7DEB7CA1BC6
:10236000DB0B0FB6F894DEBF0FBECDBF09942A88F1
:10237000398848885F846E847D848C849B84AA8499
:10238000B984C884DF80EE80FD800C811B81AA8126
:10239000B981CE0FD11D0FB6F894DEBF0FBECDBFF1
:1023A000ED010895A29FB001B39FC001A39F700DDE
:1023B000811D1124911DB29F700D811D1124911D4D
:1023C0000895283008F027E03327DA01990F311DEE
:1023D00087FD916000966105710539F432602E5FCA
:1023E0003D9330E32A95E1F708959F3F30F0803820
:1023F0007105610509F03C5F3C5F3D93913008F049
:102400008068911DDF93CF931F930F93FF92EF92FC
:10241000192F987F9695E92F96959695E90FFF27A6
:10242000E658FE4F99273327EE24FF24A701E70142
:1024300005900894079428F4360FE71EF81E491FEC
:10244000511D660F771F881F991F0694A1F70590ED
:10245000079428F4E70EF81E491F561FC11D770F79
:10246000881F991F661F0694A1F70590079428F40A
:10247000F80E491F561FC71FD11D880F991F661FD1
:10248000771F0694A1F70590079420F4490F561F73
:10249000C71FD81F990F661F771F881F0694A9F7BB
:1024A00084911095177041F0D695C795579547952B
:1024B000F794E7941A95C1F7E0E2F1E0689415907B
:1024C000159135916591959105907FE27395E1188D
:1024D000F10A430B560BC90BD009C0F7E10CF11EF2
:1024E000431F561FC91FD01D7EF4703311F48A9507
:1024F000E6CFE894015030F0080F0AF400270217E5
:1025000008F4202F2395022F7A3328F079E37D9366
:102510002A95E9F710C07D932A9589F60694979538
:102520006795379517951794E118F10A430B560BE9
:10253000C90BD00998F023957E9173957A3308F0F2
:1025400070E37C932013B8F77E9170617D9330F037
:10255000839571E37D9370E32A95E1F71124EF9061
:10256000FF900F911F91CF91DF91992787FD909553
:102570000895FC010590615070400110D8F78095D6
:1025800090958E0F9F1F0895FC016150704001903F
:102590000110D8F7809590958E0F9F1F08950F9387
:1025A0001F93CF93DF93FB01238121FD03C08FEFA6
:1025B0009FEF28C022FF16C04681578124813581B4
:1025C0004217530744F4A081B1819D012F5F3F4F13
:1025D000318320838C93268137812F5F3F4F378350
:1025E000268310C0EB01092F182F0084F185E02D00
:1025F0000995892BE1F68E819F8101969F838E83B9
:10260000812F902FDF91CF911F910F910895A0E01E
:10261000B0E0EDE0F3E10C94AB11AE014B5F5F4F26
:10262000FA0161917191AF018091D4019091D5012E
:102630000E94BB0DE2E00C94C711FA01AA272830D2
:1026400051F1203181F1E8946F936E7F6E5F7F4F7F
:102650008F4F9F4FAF4FB1E03ED0B4E03CD0670FFB
:10266000781F891F9A1FA11D680F791F8A1F911D4E
:10267000A11D6A0F711D811D911DA11D20D009F49E
:1026800068943F912AE0269F11243019305D3193E0
:10269000DEF6CF010895462F4770405D4193B3E0C9
:1026A0000FD0C9F7F6CF462F4F70405D4A3318F070
:1026B000495D31FD4052419302D0A9F7EACFB4E021
:1026C000A6959795879577956795BA95C9F70097D9
:1026D0006105710508959B01AC010A2E069457957A
:1026E000479537952795BA95C9F7620F731F841FD1
:0A26F000951FA01D0895F894FFCF78
:1026FA00000EC44700000003000000002C01400146
:10270A000000252E326620252E326620252E3266BE
:10271A0020252E326620252E326620252E3266206E
:10272A00252E326620252E326620252E3266202559
:04273A00640A00002D
:00000001FF
