:020000020000FC
:1000000008E00EBF0FEF0DBFF8E0EFEF0F2F01700C
:10001000F695E695013011F00C940F00E06809E1C7
:100020000A951E2F11930030D9F709E140E050E006
:1000300070E080E01291212F275060F0203011F005
:100040000C941C00410F10F00C942A0053958894D6
:100050000C942A008894212F235060F0203011F056
:100060000C942C00710F10F00C943A008395889436
:100070000C943A0088940A950030E1F6503021F44F
:10008000803011F40C94460008E0702E0C94460069
:00000001FF
