S0120000446132205461736B20352E7372656333
S11300000C9434000C943E000C943E000C943E007E
S11300100C943E000C943E000C943E000C943E0064
S11300200C943E000C943E000C943E000C943E0054
S11300300C943E000C943E000C943E000C943E0044
S11300400C943E000C943E000C943E000C943E0034
S11300500C943E000C943E000C943E000C943E0024
S11300600C943E000C943E0011241FBECFEFD8E048
S1130070DEBFCDBF0E944B000C9482000C940000A4
S11300808FE891E0E1EEF4E03197F1F700C0000071
S11300900197C1F7089580E387B98FEF84B915B844
S11300A018B80E94400081E085B912E0C1E0D0E0B8
S11300B0C12CD12C0F2EF0E3EF2EF02D6894FF24E9
S11300C0F5F800E10AC0F8B807C008B905C0E8B8F7
S11300D003C018B8CC2DDD2D1F5F0E9440000E9484
S11300E0400015B92196CA30D10579F324F4C530FE
S11300F0D10549F3F1CFCF30D10549F3C431D1054E
S10B010041F3EACFF894FFCFAC
S9030000FC
