S013000044612035205461736B20312E7372656313
S11300000C9434000C9451000C9451000C94510045
S11300100C9451000C9451000C9451000C94510018
S11300200C9451000C9451000C9451000C94510008
S11300300C9451000C9451000C9451000C945100F8
S11300400C9451000C9451000C9451000C945100E8
S11300500C9451000C9451000C9451000C945100D8
S11300600C9451000C94510011241FBECFEFD8E022
S1130070DEBFCDBF11E0A0E0B1E0EEEEF4E002C0DF
S113008005900D92A630B107D9F721E0A6E0B1E0C2
S113009001C01D92A830B207E1F70E9463000C94DE
S11300A075020C940000009769F020E030E0EFEC5A
S11300B0F7E03197F1F700C000002F5F3F4F28179A
S11300C03907A9F70895569A80E48BB9ECE7F0E074
S11300D01082808180648083EAE7F0E0808183601D
S11300E08083808180688083808180648083CAE784
S11300F0D0E008E710E0888180648883888186FDE9
S1130100FDCFF801808191819093070180930601CE
S11301105E9A20910601309107018091000190912F
S11301200101289FB001299F700D389F700D112483
S113013080E090E00E947A01209102013091030155
S113014040910401509105010E9408020E944B0154
S1130150CB010E9453005E986091000170910101EF
S113016080E090E00E947A016B017C01809106019D
S113017090910701BC01990F880B990B0E947C0197
S11301802091020130910301409104015091050135
S11301900E9408029B01AC0160E070E080E89FE3EC
S11301A00E94DE009B01AC01C701B6010E94080257
S11301B00E944B01CB010E9453009DCF5058BB2796
S11301C0AA270E94F6000C94CE010E94C00138F0C8
S11301D00E94C70120F039F49F3F19F426F40C94CF
S11301E0BD010EF4E095E7FB0C94B701E92F0E94E2
S11301F0DF0158F3BA17620773078407950720F0E5
S113020079F4A6F50C9401020EF4E0950B2EBA2FA6
S1130210A02D0B01B90190010C01CA01A001112408
S1130220FF27591B99F0593F50F4503E68F11A16B4
S1130230F040A22F232F342F4427585FF3CF469545
S113024037952795A795F0405395C9F77EF41F1667
S1130250BA0B620B730B840BBAF09150A1F0FF0F31
S1130260BB1F661F771F881FC2F70EC0BA0F621F1D
S1130270731F841F48F4879577956795B795F7950D
S11302809E3F08F0B0CF9395880F08F09927EE0FA2
S11302909795879508950E94E70188F09F5798F0F5
S11302A0B92F9927B751B0F0E1F0660F771F881F77
S11302B0991F1AF0BA95C9F714C0B13091F00E9491
S11302C00102B1E008950C940102672F782F88276A
S11302D0B85F39F0B93FCCF3869577956795B395B8
S11302E0D9F73EF490958095709561957F4F8F4F27
S11302F09F4F0895E89409C097FB3EF4909580952C
S1130300709561957F4F8F4F9F4F9923A9F0F92FD7
S113031096E9BB279395F695879577956795B79555
S1130320F111F8CFFAF4BB0F11F460FF1BC06F5F3B
S11303307F4F8F4F9F4F16C0882311F096E911C04D
S1130340772321F09EE8872F762F05C0662371F06E
S113035096E8862F70E060E02AF09A95660F771F82
S1130360881FDAF7880F9695879597F9089597F976
S11303709F6780E870E060E008959FEF80EC089547
S113038000240A9416161706180609060895002470
S11303900A9412161306140605060895092E0394EA
S11303A0000C11F4882352F0BB0F40F4BF2B11F45E
S11303B060FF04C06F5F7F4F8F4F9F4F089557FDBD
S11303C09058440F551F59F05F3F71F04795880FBF
S11303D097FB991F61F09F3F79F087950895121656
S11303E013061406551FF2CF4695F1DF08C0161602
S11303F017061806991FF1CF8695710561050894B3
S11304000895E894BB2766277727CB0197F90895C9
S11304100E941B020C94CE010E94C00138F00E947D
S1130420C70120F0952311F00C94B7010C94BD0181
S113043011240C9402020E94DF0170F3959FC1F312
S1130440950F50E0551F629FF001729FBB27F00D7E
S1130450B11D639FAA27F00DB11DAA1F649F6627D3
S1130460B00DA11D661F829F2227B00DA11D621F22
S1130470739FB00DA11D621F839FA00D611D221FDC
S1130480749F3327A00D611D231F849F600D211DC0
S1130490822F762F6A2F11249F5750409AF0F1F043
S11304A088234AF0EE0FFF1FBB1F661F771F881FAC
S11304B091505040A9F79E3F510580F00C94B7012C
S11304C00C9402025F3FE4F3983ED4F3869577954B
S11304D06795B795F795E7959F5FC1F7FE2B880F52
S11104E0911D9695879597F90895F894FFCF8E
S10904EE3200751F803A84
S9030000FC
