:100000000C9434000C9446000C9446000C9446006A
:100010000C9446000C9446000C9446000C94460048
:100020000C9446000C9446000C9446000C94480036
:100030000C9446000C9446000C9446000C94460028
:100040000C9446000C9446000C9446000C94460018
:100050000C9446000C9446000C9446000C94460008
:100060000C9446000C94460011241FBECFEFD8E03C
:10007000DEBFCDBF21E0A0E0B1E001C01D92A43001
:10008000B207E1F70E9484000C949A000C940000DF
:100090001F920F920FB60F9211248F939F9380910E
:1000A000000190910101019690930101809300015C
:1000B00085B980910201909103010196909303010B
:1000C000809302018A30910569F01CF4059739F09C
:1000D00014C08F30910549F0449751F00EC080E272
:1000E00088B90BC080E188B908C080E388B905C031
:1000F00018B810920301109202019F918F910F90F6
:100100000FBE0F901F90189580E387B98FEF84B9C9
:1001100015B818B884E49FE0909389008093880014
:10012000109280008DE08093810082E080936F00C8
:080130007894FFCFF894FFCF93
:00000001FF
