S013000044612032205461736B20342E7372656313
S11300000C9434000C943E000C943E000C943E007E
S11300100C943E000C943E000C943E000C943E0064
S11300200C943E000C943E000C943E000C943E0054
S11300300C943E000C943E000C943E000C943E0044
S11300400C943E000C943E000C943E000C943E0034
S11300500C943E000C943E000C943E000C943E0024
S11300600C943E000C943E0011241FBECFEFD8E048
S1130070DEBFCDBF0E944B000C9456000C940000D0
S11300808FE891E0E1EEF4E03197F1F700C0000071
S11300900197C1F7089581E087B918B8C1E00E94BB
S11300A04000C8B90E94400018B8F9CFF894FFCFB7
S9030000FC
