S013000044612035205461736B20322E7372656312
S11300000C9434000C9451000C9451000C94510045
S11300100C9451000C9451000C9451000C94510018
S11300200C9451000C9451000C9451000C94510008
S11300300C9451000C9451000C9451000C945100F8
S11300400C9451000C9451000C9451000C945100E8
S11300500C9451000C9451000C9451000C945100D8
S11300600C9451000C94510011241FBECFEFD8E022
S1130070DEBFCDBF11E0A0E0B1E0E6EAF4E002C0EB
S113008005900D92A630B107D9F721E0A6E0B1E0C2
S113009001C01D92A830B207E1F70E9463000C94DE
S11300A051020C940000009769F020E030E0EFEC7E
S11300B0F7E03197F1F700C000002F5F3F4F28179A
S11300C03907A9F708958FEF84B9569A80E48BB95C
S11300D0ECE7F0E01082808180648083EAE7F0E05E
S11300E08081836080838081806880838081806454
S11300F08083CAE7D0E008E710E00F2EF6E6CF2EA3
S1130100F02D0F2EFCECDF2EF02D0F2EF9E9EF2E43
S1130110F02D0F2EF3E3FF2EF02D88818064888369
S1130120888186FDFDCFF80180819181909307013C
S113013080930601C5B82091060130910701809192
S1130140000190910101289FB001299F700D389FF3
S1130150700D112480E090E00E945601209102016C
S11301603091030140910401509105010E94BC01AA
S11301700E942701CB010E945300D5B820910601AB
S1130180309107018091000190910101289FB001F5
S1130190299F700D389F700D112480E090E00E941B
S11301A056012091020130910301409104015091C4
S11301B005010E94BC010E942701CB010E9453004B
S11301C0E5B82091060130910701809100019091DA
S11301D00101289FB001299F700D389F700D1124D3
S11301E080E090E00E9456012091020130910301C9
S11301F040910401509105010E94BC010E94270115
S1130200CB010E945300F5B82091060130910701FB
S11302108091000190910101289FB001299F700DE8
S1130220389F700D112480E090E00E9456012091C7
S113023002013091030140910401509105010E9493
S1130240BC010E942701CB010E94530066CF0E948B
S11302509B0188F09F5798F0B92F9927B751B0F0B8
S1130260E1F0660F771F881F991F1AF0BA95C9F736
S113027014C0B13091F00E94B501B1E008950C941E
S1130280B501672F782F8827B85F39F0B93FCCF3D1
S1130290869577956795B395D9F73EF490958095B3
S11302A0709561957F4F8F4F9F4F0895E89409C0D3
S11302B097FB3EF490958095709561957F4F8F4F95
S11302C09F4F9923A9F0F92F96E9BB279395F695AB
S11302D0879577956795B795F111F8CFFAF4BB0F29
S11302E011F460FF1BC06F5F7F4F8F4F9F4F16C08D
S11302F0882311F096E911C0772321F09EE8872F17
S1130300762F05C0662371F096E8862F70E060E0D2
S11303102AF09A95660F771F881FDAF7880F96954B
S1130320879597F9089557FD9058440F551F59F034
S11303305F3F71F04795880F97FB991F61F09F3FCE
S113034079F087950895121613061406551FF2CFF7
S11303504695F1DF08C0161617061806991FF1CF47
S113036086957105610508940895E894BB2766276E
S11303707727CB0197F908950E94CF010C9440028E
S11303800E94320238F00E94390220F0952311F0C5
S11303900C9429020C942F0211240C94B6010E948F
S11303A0930170F3959FC1F3950F50E0551F629F21
S11303B0F001729FBB27F00DB11D639FAA27F00DBA
S11303C0B11DAA1F649F6627B00DA11D661F829FE1
S11303D02227B00DA11D621F739FB00DA11D621FC6
S11303E0839FA00D611D221F749F3327A00D611DE3
S11303F0231F849F600D211D822F762F6A2F1124C5
S11304009F5750409AF0F1F088234AF0EE0FFF1FF7
S1130410BB1F661F771F881F91505040A9F79E3F4E
S1130420510580F00C9429020C94B6015F3FE4F36B
S1130430983ED4F3869577956795B795F795E795A4
S11304409F5FC1F7FE2B880F911D9695879597F9AD
S1130450089597F99F6780E870E060E008959FEF42
S113046080EC089500240A94161617061806090647
S1130470089500240A941216130614060506089516
S1130480092E0394000C11F4882352F0BB0F40F49E
S1130490BF2B11F460FF04C06F5F7F4F8F4F9F4FDE
S10904A00895F894FFCF5B
S10904A63200751F803ACC
S9030000FC
