:100000000C9434000C9451000C9451000C94510049
:100010000C9451000C9451000C9451000C9451001C
:100020000C9451000C9451000C9451000C9451000C
:100030000C9451000C9451000C9451000C945100FC
:100040000C9451000C9451000C9451000C945100EC
:100050000C9451000C9451000C9451000C945100DC
:100060000C9451000C94510011241FBECFEFD8E026
:10007000DEBFCDBF11E0A0E0B1E0E8ECF4E002C0EB
:1000800005900D92A030B107D9F721E0A0E0B1E0D2
:1000900001C01D92A230B207E1F70E9453000C94F8
:1000A00062020C9400008FEF84B9ECE7F0E010825C
:1000B000808180648083EAE7F0E0808183608083D0
:1000C00080818068808380818064808380E29EE478
:1000D000909387008093860084EF91E0909389004D
:1000E00080938800E0E8F0E0808182688083E1E826
:1000F000F0E080818A618083CAE7D0E00F2EF8E7C4
:10010000EF2EF12CF02D08E810E00F2EF4EFCF2E9B
:10011000F02DDD24D394888180648883888186FFD4
:10012000FDCFF7016081718170930101609300013F
:10013000072E000C880B990B0E94690125E73FE10F
:1001400040E85AE30E94F5019B01AC0160E070E0D9
:1001500080E89FE30E94C40020E030E041EE54E4D8
:100160000E94F5010E9431016C507E4FF8017183AD
:1001700060838C2D9D2DEFECF7E03197F1F700C0F7
:1001800000000197C1F7C7CF5058BB27AA270E948C
:10019000DC000C94BB010E94AD0138F00E94B40158
:1001A00020F039F49F3F19F426F40C94AA010EF4C0
:1001B000E095E7FB0C94A401E92F0E94CC0158F3D1
:1001C000BA17620773078407950720F079F4A6F53C
:1001D0000C94EE010EF4E0950B2EBA2FA02D0B011E
:1001E000B90190010C01CA01A0011124FF27591B7C
:1001F00099F0593F50F4503E68F11A16F040A22F82
:10020000232F342F4427585FF3CF469537952795F2
:10021000A795F0405395C9F77EF41F16BA0B620BF1
:10022000730B840BBAF09150A1F0FF0FBB1F661F38
:10023000771F881FC2F70EC0BA0F621F731F841F7B
:1002400048F4879577956795B795F7959E3F08F0A1
:10025000B0CF9395880F08F09927EE0F9795879563
:1002600008950E9438016894B1110C94EF0108952B
:100270000E94D40188F09F5798F0B92F9927B75161
:10028000B0F0E1F0660F771F881F991F1AF0BA953A
:10029000C9F714C0B13091F00E94EE01B1E00895A9
:1002A0000C94EE01672F782F8827B85F39F0B93F9B
:1002B000CCF3869577956795B395D9F73EF49095ED
:1002C0008095709561957F4F8F4F9F4F0895E8946B
:1002D00009C097FB3EF490958095709561957F4F8E
:1002E0008F4F9F4F9923A9F0F92F96E9BB2793953C
:1002F000F695879577956795B795F111F8CFFAF44C
:10030000BB0F11F460FF1BC06F5F7F4F8F4F9F4F7C
:1003100016C0882311F096E911C0772321F09EE8DA
:10032000872F762F05C0662371F096E8862F70E040
:1003300060E02AF09A95660F771F881FDAF7880F1A
:100340009695879597F9089597F99F6780E870E0EB
:1003500060E008959FEF80EC089500240A9416163B
:10036000170618060906089500240A9412161306A3
:10037000140605060895092E0394000C11F4882331
:1003800052F0BB0F40F4BF2B11F460FF04C06F5F4D
:100390007F4F8F4F9F4F089557FD9058440F551F23
:1003A00059F05F3F71F04795880F97FB991F61F0F7
:1003B0009F3F79F087950895121613061406551F6E
:1003C000F2CF4695F1DF08C0161617061806991FDA
:1003D000F1CF86957105610508940895E894BB27CF
:1003E00066277727CB0197F908950E9408020C949D
:1003F000BB010E94AD0138F00E94B40120F09523AA
:1004000011F00C94A4010C94AA0111240C94EF0196
:100410000E94CC0170F3959FC1F3950F50E0551FDA
:10042000629FF001729FBB27F00DB11D639FAA2749
:10043000F00DB11DAA1F649F6627B00DA11D661F98
:10044000829F2227B00DA11D621F739FB00DA11DB9
:10045000621F839FA00D611D221F749F3327A00D73
:10046000611D231F849F600D211D822F762F6A2F0F
:1004700011249F5750409AF0F1F088234AF0EE0F74
:10048000FF1FBB1F661F771F881F91505040A9F7A1
:100490009E3F510580F00C94A4010C94EF015F3F46
:1004A000E4F3983ED4F3869577956795B795F795DD
:1004B000E7959F5FC1F7FE2B880F911D9695879555
:0804C00097F90895F894FFCFAD
:00000001FF
