S013000044612034205461736B20312E7372656314
S11300000C9434000C943E000C943E000C943E007E
S11300100C943E000C943E000C943E000C943E0064
S11300200C943E000C943E000C943E000C943E0054
S11300300C943E000C943E000C943E000C943E0044
S11300400C943E000C943E000C943E000C943E0034
S11300500C943E000C943E000C943E000C943E0024
S11300600C943E000C943E0011241FBECFEFD8E048
S1130070DEBFCDBF0E944B000C9494000C94000092
S113008083E390E0EFE9FFE03197F1F700C000006F
S11300900197C1F708958FEF8AB984B986EE87BDB9
S11300A026EE30E030938900209388008093B300DB
S11300B081EC84BD93E095BD809380009093810092
S11300C08093B00084E08093B1000F2EF6EEFF2EF3
S11300D0F02D03EB10E00F2EF8E8CF2ED12CF02DED
S11300E0EF2C0F2EF6EEAF2EB12CF02D1BC0F80125
S11300F0C083C9510E944000C530C9F7F801F0829D
S1130100D9518D2F90E0F601918380830E944000A5
S1130110D53011F0CE2DEBCFF601B182A08217BC01
S10F01200E944000DF2DF6CFF894FFCFC2
S9030000FC
