:020000020000FC
:10000000209A219A229A239A249A259A269A279A04
:100010003D9A3C9A00E0102E402F0E942F0013942E
:1000200015B84395453051F04A3061F04F3071F0CA
:10003000443181F00E942F000C940D0000E208B9B9
:100040000C941A0000E108B90C941A0000E308B9F6
:100050000C941A0040E000E008B90C941A000F93C9
:100060001F932F930FE31DE723E5000000002A955F
:10007000F1F71A95C9F70A95B1F72F911F910F91D2
:020080000895E1
:00000001FF
